:020000040000FA
:10180000200006B000001915000019190000191B6E
:1018100000000000000000000000000000000000C8
:101820000000000000000000000000000000191D82
:1018300000000000000000000000191F0000192136
:1018400000001923000019230000192300001923A8
:101850000000192300001923000019230000192398
:1018600000001923000019BD0000192300001923EE
:1018700000F002F800F03EF80CA030C80838241838
:101880002D18A246671EAB4654465D46AC4201D1B8
:1018900000F030F87E460F3E0FCCB64601263342AC
:1018A00000D0FB1AA246AB4633431847000003F0B2
:1018B00000000410103A02D378C878C1FAD8520751
:1018C00001D330C830C101D504680C6070470000F6
:1018D0000023002400250026103A01D378C1FBD84C
:1018E000520700D330C100D50B6070471FB51FBD34
:1018F00010B510BD00F029F81146FFF7F7FF00F012
:1019000025F900F041F803B4FFF7F2FF03BC00F043
:1019100047F8000006480047FEE7FEE7FEE7FEE75F
:10192000FEE7FEE703480449044A054B7047000000
:1019300000001871200001B0200006B0200002B0A5
:10194000200002B0704770477047754600F024F8D9
:10195000AE46050069465346C008C000854618B02B
:1019600020B5FFF7DFFF60BC00274908B646002618
:10197000C0C5C0C5C0C5C0C5C0C5C0C5C0C5C0C53F
:10198000403D49008D46704710B50446C046C046EC
:101990002046FFF7B8FF10BD0048704720000150F7
:1019A00001491820ABBEFEE7000200267047000088
:1019B00003B40148019001BD2000000110B50522CB
:1019C000120790680123184390600A20401EFDD240
:1019D00090684008400090609069400711D504204D
:1019E0009061FF24F53409E0906818439060204628
:1019F000401EFDD29068400840009060906940070A
:101A0000F2D410BD78B505460E4614460120800775
:101A100000680090052D00DD78BD0120800700687A
:101A200001214903084349040860002C06D12846D7
:101A300000F014F9284600F021F90AE0012C03D146
:101A4000284600F013F904E0022C02D1284600F0E9
:101A50001DF9002E03D0284600F0F8F802E02846D1
:101A600000F0ECF8012189070098086000BFD3E777
:101A700001208007016842121143016001681022B1
:101A800091430160C16803221143C160C168C90567
:101A9000FCD570470922120203E00021491C914243
:101AA000FCD3401EF9D2704703490A6883069B0E97
:101AB0009A430A60704700004000100003490A681A
:101AC00083069B0E1A430A60704700004000100016
:101AD00003490A6883069B0E9A430A607047000018
:101AE0004000100810B506490A1D13688406A40EAC
:101AF000A34313600B688406A40E23430B6010BD40
:101B00004000100403490A6883069B0E9A430A604A
:101B1000704700004000100410B506490A1D0B680C
:101B20008406A40EA3430B6013688406A40E23430B
:101B3000136010BD4000100410B5FFF799FF00F0CE
:101B400067F81820FFF734FF10BD0000FFF7F4FF1F
:101B5000C820FFF79FFF0124A4072068A51428438D
:101B60002060012211460220FFF74CFF05200007EC
:101B7000826804210A438260C2688A43C260226884
:101B80002A432260026930239A43026102692023BA
:101B90001A4302611B4EB268FF231B029A43B260D4
:101BA000194BCA011A60194B1A608269520703D592
:101BB000816182695207FCD422682A43226042690B
:101BC0000A434261026802210A430260C2680A4372
:101BD000C26082688A438260026801231A430260FD
:101BE000C2681A43C26082685208520082608268EA
:101BF0000A43826082688A43826082681A438260F4
:101C0000F1E70000E000E400E000E280E000E10035
:101C100009490848086000214007016142685208EC
:101C200052004260827D032A01D1022282758175B1
:101C300070470000000007024000600010B5044635
:101C40000121A1400846FFF72FFF10BD10B5044643
:101C50000121A1400846FFF731FF10BD10B5044631
:101C60000121A1400846FFF733FF10BD10B504461F
:101C70000121A1400846FFF735FF10BD10B504460D
:101C80000121A1400846FFF73DFF10BD10B50446F5
:101C90000121A1400846FFF73FFF10BD00001CBC1A
:101CA0002000000000000150000018B400001E0CCD
:101CB0002000015000000560000018D001460120FE
:101CC0008207126843051A4383071A608207126865
:101CD00003051A4383071A600122424B1A60182930
:101CE0001FD16C22404B5A60FF2209329A60D822E1
:101CF000DA6048221A6184225A61FF22F9329A611D
:101D0000FC22DA619922D2001A62384A5A62921091
:101D10009A629922D200DA62354A1A63FC225A6327
:101D20005EE00C291DD136222F4B5A6084229A6026
:101D30006C22DA6024221A6142225A61FC229A61E2
:101D40007E22DA61992292001A622A4A5A6292101D
:101D50009A6299229200DA62274A1A637E225A63B3
:101D60003EE006291DD11B221F4B5A6042229A6079
:101D70003622DA6012221A6121225A617E229A6189
:101D80003F22DA61FF2233321A621C4A5A629210F1
:101D90009A62FF223332DA62194A1A633F225A6387
:101DA0001EE005291BD117220F4B5A6037229A607B
:101DB0002D22DA600F221A6153225A6169229A6138
:101DC0003522DA61FF221A620E4A5A6292109A6232
:101DD000FF22DA620C4A1A6335225A6300E00020BF
:101DE000704700004000200040006000000151806A
:101DF00000034BC00000A8C00001A5E00000546033
:0C1E00000000D2F0000046500000AFC807
:04000005000018716E
:00000001FF
